{
  "abi": [
    {
      "inputs": [
        {
          "internalType": "address",
          "name": "_chairperson",
          "type": "address"
        }
      ],
      "stateMutability": "nonpayable",
      "type": "constructor"
    },
    {
      "anonymous": false,
      "inputs": [
        {
          "indexed": true,
          "internalType": "address",
          "name": "owner",
          "type": "address"
        },
        {
          "indexed": true,
          "internalType": "address",
          "name": "spender",
          "type": "address"
        },
        {
          "indexed": false,
          "internalType": "uint256",
          "name": "amount",
          "type": "uint256"
        }
      ],
      "name": "Approval",
      "type": "event"
    },
    {
      "anonymous": false,
      "inputs": [
        {
          "indexed": true,
          "internalType": "address",
          "name": "user",
          "type": "address"
        },
        {
          "indexed": true,
          "internalType": "address",
          "name": "newOwner",
          "type": "address"
        }
      ],
      "name": "OwnerUpdated",
      "type": "event"
    },
    {
      "anonymous": false,
      "inputs": [
        {
          "indexed": true,
          "internalType": "address",
          "name": "from",
          "type": "address"
        },
        {
          "indexed": true,
          "internalType": "address",
          "name": "to",
          "type": "address"
        },
        {
          "indexed": false,
          "internalType": "uint256",
          "name": "amount",
          "type": "uint256"
        }
      ],
      "name": "Transfer",
      "type": "event"
    },
    {
      "inputs": [],
      "name": "DOMAIN_SEPARATOR",
      "outputs": [
        {
          "internalType": "bytes32",
          "name": "",
          "type": "bytes32"
        }
      ],
      "stateMutability": "view",
      "type": "function"
    },
    {
      "inputs": [
        {
          "internalType": "address",
          "name": "",
          "type": "address"
        },
        {
          "internalType": "address",
          "name": "",
          "type": "address"
        }
      ],
      "name": "allowance",
      "outputs": [
        {
          "internalType": "uint256",
          "name": "",
          "type": "uint256"
        }
      ],
      "stateMutability": "view",
      "type": "function"
    },
    {
      "inputs": [
        {
          "internalType": "address",
          "name": "spender",
          "type": "address"
        },
        {
          "internalType": "uint256",
          "name": "amount",
          "type": "uint256"
        }
      ],
      "name": "approve",
      "outputs": [
        {
          "internalType": "bool",
          "name": "",
          "type": "bool"
        }
      ],
      "stateMutability": "nonpayable",
      "type": "function"
    },
    {
      "inputs": [
        {
          "internalType": "address",
          "name": "",
          "type": "address"
        }
      ],
      "name": "balanceOf",
      "outputs": [
        {
          "internalType": "uint256",
          "name": "",
          "type": "uint256"
        }
      ],
      "stateMutability": "view",
      "type": "function"
    },
    {
      "inputs": [],
      "name": "decimals",
      "outputs": [
        {
          "internalType": "uint8",
          "name": "",
          "type": "uint8"
        }
      ],
      "stateMutability": "view",
      "type": "function"
    },
    {
      "inputs": [],
      "name": "name",
      "outputs": [
        {
          "internalType": "string",
          "name": "",
          "type": "string"
        }
      ],
      "stateMutability": "view",
      "type": "function"
    },
    {
      "inputs": [
        {
          "internalType": "address",
          "name": "",
          "type": "address"
        }
      ],
      "name": "nonces",
      "outputs": [
        {
          "internalType": "uint256",
          "name": "",
          "type": "uint256"
        }
      ],
      "stateMutability": "view",
      "type": "function"
    },
    {
      "inputs": [],
      "name": "owner",
      "outputs": [
        {
          "internalType": "address",
          "name": "",
          "type": "address"
        }
      ],
      "stateMutability": "view",
      "type": "function"
    },
    {
      "inputs": [
        {
          "internalType": "address",
          "name": "owner",
          "type": "address"
        },
        {
          "internalType": "address",
          "name": "spender",
          "type": "address"
        },
        {
          "internalType": "uint256",
          "name": "value",
          "type": "uint256"
        },
        {
          "internalType": "uint256",
          "name": "deadline",
          "type": "uint256"
        },
        {
          "internalType": "uint8",
          "name": "v",
          "type": "uint8"
        },
        {
          "internalType": "bytes32",
          "name": "r",
          "type": "bytes32"
        },
        {
          "internalType": "bytes32",
          "name": "s",
          "type": "bytes32"
        }
      ],
      "name": "permit",
      "outputs": [],
      "stateMutability": "nonpayable",
      "type": "function"
    },
    {
      "inputs": [
        {
          "internalType": "address",
          "name": "newOwner",
          "type": "address"
        }
      ],
      "name": "setOwner",
      "outputs": [],
      "stateMutability": "nonpayable",
      "type": "function"
    },
    {
      "inputs": [],
      "name": "symbol",
      "outputs": [
        {
          "internalType": "string",
          "name": "",
          "type": "string"
        }
      ],
      "stateMutability": "view",
      "type": "function"
    },
    {
      "inputs": [],
      "name": "totalSupply",
      "outputs": [
        {
          "internalType": "uint256",
          "name": "",
          "type": "uint256"
        }
      ],
      "stateMutability": "view",
      "type": "function"
    },
    {
      "inputs": [
        {
          "internalType": "address",
          "name": "to",
          "type": "address"
        },
        {
          "internalType": "uint256",
          "name": "amount",
          "type": "uint256"
        }
      ],
      "name": "transfer",
      "outputs": [
        {
          "internalType": "bool",
          "name": "",
          "type": "bool"
        }
      ],
      "stateMutability": "nonpayable",
      "type": "function"
    },
    {
      "inputs": [
        {
          "internalType": "address",
          "name": "from",
          "type": "address"
        },
        {
          "internalType": "address",
          "name": "to",
          "type": "address"
        },
        {
          "internalType": "uint256",
          "name": "amount",
          "type": "uint256"
        }
      ],
      "name": "transferFrom",
      "outputs": [
        {
          "internalType": "bool",
          "name": "",
          "type": "bool"
        }
      ],
      "stateMutability": "nonpayable",
      "type": "function"
    }
  ],
  "bytecode": {
    "object": "0x60e06040523480156200001157600080fd5b5060405162000f9838038062000f988339810160408190526200003491620001bc565b336040518060400160405280600681526020016541305a2e564360d01b8152506040518060400160405280600381526020016220982d60e91b8152506012826000908162000083919062000293565b50600162000092838262000293565b5060ff81166080524660a052620000a862000120565b60c0525050600680546001600160a01b0319166001600160a01b0384169081179091556040519091506000907f8292fce18fa69edf4db7b94ea2e58241df0ae57f97e0a6c9b29067028bf92d76908290a350600680546001600160a01b0319166001600160a01b0392909216919091179055620003dd565b60007f8b73c3c69bb8fe3d512ecc4cf759cc79239f7b179b0ffacaa9a75d522b39400f60006040516200015491906200035f565b6040805191829003822060208301939093528101919091527fc89efdaa54c0f20c7adf612882df0950f5a951637e0307cdcb4c672f298b8bc660608201524660808201523060a082015260c00160405160208183030381529060405280519060200120905090565b600060208284031215620001cf57600080fd5b81516001600160a01b0381168114620001e757600080fd5b9392505050565b634e487b7160e01b600052604160045260246000fd5b600181811c908216806200021957607f821691505b6020821081036200023a57634e487b7160e01b600052602260045260246000fd5b50919050565b601f8211156200028e57600081815260208120601f850160051c81016020861015620002695750805b601f850160051c820191505b818110156200028a5782815560010162000275565b5050505b505050565b81516001600160401b03811115620002af57620002af620001ee565b620002c781620002c0845462000204565b8462000240565b602080601f831160018114620002ff5760008415620002e65750858301515b600019600386901b1c1916600185901b1785556200028a565b600085815260208120601f198616915b8281101562000330578886015182559484019460019091019084016200030f565b50858210156200034f5787850151600019600388901b60f8161c191681555b5050505050600190811b01905550565b60008083546200036f8162000204565b600182811680156200038a5760018114620003a057620003d1565b60ff1984168752821515830287019450620003d1565b8760005260208060002060005b85811015620003c85781548a820152908401908201620003ad565b50505082870194505b50929695505050505050565b60805160a05160c051610b8b6200040d6000396000610533015260006104fe015260006101740152610b8b6000f3fe608060405234801561001057600080fd5b50600436106100ea5760003560e01c806370a082311161008c57806395d89b411161006657806395d89b411461021b578063a9059cbb14610223578063d505accf14610236578063dd62ed3e1461024957600080fd5b806370a08231146101b05780637ecebe00146101d05780638da5cb5b146101f057600080fd5b806318160ddd116100c857806318160ddd1461014557806323b872dd1461015c578063313ce5671461016f5780633644e515146101a857600080fd5b806306fdde03146100ef578063095ea7b31461010d57806313af403514610130575b600080fd5b6100f7610274565b60405161010491906108b8565b60405180910390f35b61012061011b366004610929565b610302565b6040519015158152602001610104565b61014361013e366004610953565b61036e565b005b61014e60025481565b604051908152602001610104565b61012061016a366004610975565b610408565b6101967f000000000000000000000000000000000000000000000000000000000000000081565b60405160ff9091168152602001610104565b61014e6104fa565b61014e6101be366004610953565b60036020526000908152604090205481565b61014e6101de366004610953565b60056020526000908152604090205481565b600654610203906001600160a01b031681565b6040516001600160a01b039091168152602001610104565b6100f7610555565b610120610231366004610929565b610562565b6101436102443660046109b1565b6105da565b61014e610257366004610a24565b600460209081526000928352604080842090915290825290205481565b6000805461028190610a57565b80601f01602080910402602001604051908101604052809291908181526020018280546102ad90610a57565b80156102fa5780601f106102cf576101008083540402835291602001916102fa565b820191906000526020600020905b8154815290600101906020018083116102dd57829003601f168201915b505050505081565b3360008181526004602090815260408083206001600160a01b038716808552925280832085905551919290917f8c5be1e5ebec7d5bd14f71427d1e84f3dd0314c0f7b2291e5b200ac8c7c3b9259061035d9086815260200190565b60405180910390a350600192915050565b6006546001600160a01b031633146103bc5760405162461bcd60e51b815260206004820152600c60248201526b15539055551213d49256915160a21b60448201526064015b60405180910390fd5b600680546001600160a01b0319166001600160a01b03831690811790915560405133907f8292fce18fa69edf4db7b94ea2e58241df0ae57f97e0a6c9b29067028bf92d7690600090a350565b6001600160a01b038316600090815260046020908152604080832033845290915281205460001981146104645761043f8382610a91565b6001600160a01b03861660009081526004602090815260408083203384529091529020555b6001600160a01b0385166000908152600360205260408120805485929061048c908490610a91565b90915550506001600160a01b03808516600081815260036020526040908190208054870190555190918716907fddf252ad1be2c89b69c2b068fc378daa952ba7f163c4a11628f55a4df523b3ef906104e79087815260200190565b60405180910390a3506001949350505050565b60007f000000000000000000000000000000000000000000000000000000000000000046146105305761052b61081e565b905090565b507f000000000000000000000000000000000000000000000000000000000000000090565b6001805461028190610a57565b33600090815260036020526040812080548391908390610583908490610a91565b90915550506001600160a01b038316600081815260036020526040908190208054850190555133907fddf252ad1be2c89b69c2b068fc378daa952ba7f163c4a11628f55a4df523b3ef9061035d9086815260200190565b4284101561062a5760405162461bcd60e51b815260206004820152601760248201527f5045524d49545f444541444c494e455f4558504952454400000000000000000060448201526064016103b3565b600060016106366104fa565b6001600160a01b038a811660008181526005602090815260409182902080546001810190915582517f6e71edae12b1b97f4d1f60370fef10105fa2faae0126114a169c64845d6126c98184015280840194909452938d166060840152608083018c905260a083019390935260c08083018b90528151808403909101815260e08301909152805192019190912061190160f01b6101008301526101028201929092526101228101919091526101420160408051601f198184030181528282528051602091820120600084529083018083525260ff871690820152606081018590526080810184905260a0016020604051602081039080840390855afa158015610742573d6000803e3d6000fd5b5050604051601f1901519150506001600160a01b038116158015906107785750876001600160a01b0316816001600160a01b0316145b6107b55760405162461bcd60e51b815260206004820152600e60248201526d24a72b20a624a22fa9a4a3a722a960911b60448201526064016103b3565b6001600160a01b0390811660009081526004602090815260408083208a8516808552908352928190208990555188815291928a16917f8c5be1e5ebec7d5bd14f71427d1e84f3dd0314c0f7b2291e5b200ac8c7c3b925910160405180910390a350505050505050565b60007f8b73c3c69bb8fe3d512ecc4cf759cc79239f7b179b0ffacaa9a75d522b39400f60006040516108509190610ab6565b6040805191829003822060208301939093528101919091527fc89efdaa54c0f20c7adf612882df0950f5a951637e0307cdcb4c672f298b8bc660608201524660808201523060a082015260c00160405160208183030381529060405280519060200120905090565b600060208083528351808285015260005b818110156108e5578581018301518582016040015282016108c9565b818111156108f7576000604083870101525b50601f01601f1916929092016040019392505050565b80356001600160a01b038116811461092457600080fd5b919050565b6000806040838503121561093c57600080fd5b6109458361090d565b946020939093013593505050565b60006020828403121561096557600080fd5b61096e8261090d565b9392505050565b60008060006060848603121561098a57600080fd5b6109938461090d565b92506109a16020850161090d565b9150604084013590509250925092565b600080600080600080600060e0888a0312156109cc57600080fd5b6109d58861090d565b96506109e36020890161090d565b95506040880135945060608801359350608088013560ff81168114610a0757600080fd5b9699959850939692959460a0840135945060c09093013592915050565b60008060408385031215610a3757600080fd5b610a408361090d565b9150610a4e6020840161090d565b90509250929050565b600181811c90821680610a6b57607f821691505b602082108103610a8b57634e487b7160e01b600052602260045260246000fd5b50919050565b600082821015610ab157634e487b7160e01b600052601160045260246000fd5b500390565b600080835481600182811c915080831680610ad257607f831692505b60208084108203610af157634e487b7160e01b86526022600452602486fd5b818015610b055760018114610b1a57610b47565b60ff1986168952841515850289019650610b47565b60008a81526020902060005b86811015610b3f5781548b820152908501908301610b26565b505084890196505b50949897505050505050505056fea26469706673582212209d9f408e2746807b12b001bcbe09d7b0c1ce95dea7d35b546d0273edfe98796064736f6c634300080f0033",
    "linkReferences": {}
  },
  "methodIdentifiers": {
    "DOMAIN_SEPARATOR()": "3644e515",
    "allowance(address,address)": "dd62ed3e",
    "approve(address,uint256)": "095ea7b3",
    "balanceOf(address)": "70a08231",
    "decimals()": "313ce567",
    "name()": "06fdde03",
    "nonces(address)": "7ecebe00",
    "owner()": "8da5cb5b",
    "permit(address,address,uint256,uint256,uint8,bytes32,bytes32)": "d505accf",
    "setOwner(address)": "13af4035",
    "symbol()": "95d89b41",
    "totalSupply()": "18160ddd",
    "transfer(address,uint256)": "a9059cbb",
    "transferFrom(address,address,uint256)": "23b872dd"
  },
  "id": 2
}